:020000040000FA
:100000000C945D000C9485000C9485000C94850084
:100010000C9485000C9485000C9485000C9485004C
:100020000C9485000C9485000C9485000C9485003C
:100030000C9485000C9485000C9485000C9485002C
:100040000C9469020C9485000C9437020C941102F4
:100050000C9485000C9485000C9485000C9485000C
:100060000C9485000C94850000000008000201003B
:100070000003040700000000000000000000000072
:10008000250028002B0000000000240027002A0083
:10009000040404040404040402020202020203032E
:1000A0000303030301020408102040800102040836
:1000B0001020010204081020780411241FBECFEF85
:1000C000D8E0DEBFCDBF21E0A4E1B1E001C01D92C8
:1000D000AE3BB207E1F711E0A0E0B1E0EEE9F9E0F4
:1000E00002C005900D92A431B107D9F710E0CDE51B
:1000F000D0E004C02197FE010E94C704CC35D1078F
:10010000C9F70E94B3020C94CD040C94000090E057
:10011000FC01EC55FF4F249180579F4FFC018491C7
:10012000882399F090E0880F991FFC01EA57FF4F50
:10013000A591B491FC01E458FF4F859194918FB73C
:10014000F894EC91E22BEC938FBF0895AF92BF929D
:10015000CF92DF92EF92FF920F931F93CF93DF9393
:100160006C017B018B01040F151FEB015E01AE18C2
:10017000BF08C017D10759F06991D601ED91FC91E4
:100180000190F081E02DC6010995892B79F7C50111
:10019000DF91CF911F910F91FF90EF90DF90CF9063
:1001A000BF90AF900895FC01538D448D252F30E012
:1001B000842F90E0821B930B541710F0CF96089574
:1001C00001970895FC01918D828D981761F0A28DA1
:1001D000AE0FBF2FB11D5D968C91928D9F5F9F7367
:1001E000928F90E008958FEF9FEF0895FC01918D1D
:1001F000828D981731F0828DE80FF11D858D90E08A
:1002000008958FEF9FEF0895FC01918D228D892F26
:1002100090E0805C9F4F821B91098F73992708950E
:1002200081E291E00E94040121E0892B09F420E0A1
:10023000822F089580E090E0892B29F00E94100120
:1002400081110C9400000895FC01A48DA80FB92F12
:10025000B11DA35ABF4F2C91848D90E001968F73EE
:100260009927848FA689B7892C93A089B1898C910D
:10027000837080648C93938D848D981306C002885C
:10028000F389E02D80818F7D80830895EF92FF9226
:100290000F931F93CF93DF93EC0181E0888F9B8DA9
:1002A0008C8D98131AC0E889F989808185FF15C063
:1002B0009FB7F894EE89FF896083E889F989808186
:1002C0008370806480839FBF81E090E0DF91CF9155
:1002D0001F910F91FF90EF900895F62E0B8D10E077
:1002E0000F5F1F4F0F731127E02E8C8D8E110CC0E6
:1002F0000FB607FCFACFE889F989808185FFF5CF31
:10030000CE010E942401F1CFEB8DEC0FFD2FF11DEA
:10031000E35AFF4FF0829FB7F8940B8FEA89FB896D
:1003200080818062CFCFCF93DF93EC01888D8823CB
:10033000B9F0AA89BB89E889F9898C9185FD03C048
:10034000808186FD0DC00FB607FCF7CF8C9185FF2D
:10035000F2CF808185FFEDCFCE010E942401E9CF4D
:10036000DF91CF91089590E0FC01E859FF4F24916F
:10037000FC01EC55FF4F3491FC01E057FF4FE49135
:10038000EE23C9F0222339F0233001F1A8F4213003
:1003900019F1223029F1F0E0EE0FFF1FE458FF4F72
:1003A000A591B4918FB7F894EC91611126C0309566
:1003B0003E233C938FBF08952730A9F02830C9F021
:1003C000243049F7809180008F7D03C080918000A8
:1003D0008F7780938000DFCF84B58F7784BDDBCFAC
:1003E00084B58F7DFBCF8091B0008F778093B00074
:1003F000D2CF8091B0008F7DF9CF3E2BDACF8E50D7
:10040000806480937C0080917A00806480937A007D
:1004100080917A0086FDFCCF8091780090917900E0
:1004200008951F920F920FB60F9211242F933F93AE
:100430004F935F936F937F938F939F93AF93BF93EC
:10044000EF93FF9381E291E00E942401FF91EF91ED
:10045000BF91AF919F918F917F916F915F914F91DC
:100460003F912F910F900FBE0F901F9018951F92E4
:100470000F920FB60F9211242F938F939F93EF93A8
:10048000FF93E0913101F09132018081E0913701D9
:10049000F091380182FD1BC0908180913A018F5FFD
:1004A0008F7320913B01821741F0E0913A01F0E017
:1004B000EF5DFE4F958F80933A01FF91EF919F91F1
:1004C0008F912F910F900FBE0F901F9018958081E4
:1004D000F4CF1F920F920FB60F9211242F933F93D8
:1004E0008F939F93AF93BF938091190190911A01BD
:1004F000A0911B01B0911C013091180123E0230F42
:100500002D3758F50196A11DB11D20931801809338
:10051000190190931A01A0931B01B0931C018091C3
:10052000140190911501A0911601B0911701019647
:10053000A11DB11D8093140190931501A093160184
:10054000B0931701BF91AF919F918F913F912F91E0
:100550000F900FBE0F901F90189526E8230F02965C
:10056000A11DB11DD2CFCF93DF9300D01F92CDB785
:10057000DEB7789484B5826084BD84B5816084BD23
:1005800085B5826085BD85B5816085BD80916E0031
:10059000816080936E001092810080918100826062
:1005A000809381008091810081608093810080919F
:1005B00080008160809380008091B100846080938E
:1005C000B1008091B00081608093B00080917A008A
:1005D000846080937A0080917A00826080937A00B0
:1005E00080917A00816080937A0080917A0080689F
:1005F00080937A001092C100E0913101F0913201B4
:1006000082E08083E0912D01F0912E011082E09133
:100610002F01F091300187E6808310923901E0913B
:100620003501F091360186E08083E0913301F0914D
:100630003401808180618083E0913301F091340145
:10064000808188608083E0913301F0913401808162
:1006500080688083E0913301F091340180818F7D47
:1006600080838DE00E9487008CE00E94870087E0F5
:100670000E94870086E00E94870085E00E94870034
:1006800084E00E94870083E00E94870082E00E944D
:1006900087004E0184E0880E911C88E8482E83E193
:1006A000582E612C712C90E0A92E90E0B92E8FB7B6
:1006B000F894C0901901D0901A01E0901B01F090BD
:1006C0001C018FBF81E291E00E94040118161906F7
:1006D0000CF05CC08E010F5F1F4F2FB7F894809114
:1006E000190190911A01A0911B01B0911C012FBF1B
:1006F0008093290190932A01A0932B01B0932C01A0
:1007000081E291E00E94E20097FFEAC02FB7F894DF
:100710008091190190911A01A0911B01B0911C01C7
:100720002FBF4091290150912A0160912B017091B6
:100730002C01841B950BA60BB70B40912501509102
:100740002601609127017091280184179507A6075B
:10075000B707B0F2498150E02A8130E08B8190E008
:100760004130510509F08DC02130310509F074C0C8
:100770009093200180931F01019709F068C087E0E2
:100780000E94870061E087E00E94B301C701B601C3
:10079000A30192010E94A504672B682B692B09F025
:1007A0004AC080911F0190912001892BC9F01091BE
:1007B000010160E086E0112309F47AC00E94B301D0
:1007C00060E085E00E94B30160E086E00E94B30132
:1007D00061E085E00E94B30181E0182710930101D8
:1007E00080911D0190911E01892BC9F0109100018B
:1007F00060E083E0112309F467C00E94B30160E068
:1008000082E00E94B30160E083E00E94B30161E0F6
:1008100082E00E94B30181E01827109300018EE06E
:100820000E94FF018FE00E94FF0180E10E94FF0112
:1008300081E10E94FF01A114B10409F438CF0E94A4
:100840001001882309F433CF0E94000030CF87E0E5
:100850000E94870060E097CF2230310509F096CFE3
:1008600090931E0180931D01019731F484E00E9452
:10087000870061E084E088CF84E00E94870060E028
:10088000F9CF4230510509F081CF2130310531F4E3
:1008900061E0019709F060E08DE076CF223031050C
:1008A00009F074CF61E0019709F060E08CE06CCF53
:1008B0000E94B30160E085E00E94B30161E086E040
:1008C0000E94B30160E085CF0E94B30160E082E046
:1008D0000E94B30161E083E00E94B30160E098CF21
:1008E000F80181938F018E169F0609F0F6CE32CF64
:1008F000E1E2F1E01382128288EE93E0A0E0B0E042
:1009000084839583A683B78386E091E09183808377
:1009100085EC90E09587848784EC90E097878687C4
:1009200080EC90E0918B808B81EC90E0938B828BBC
:1009300082EC90E0958B848B86EC90E0978B868B95
:10094000118E128E138E148E0895A1E21A2EAA1BF8
:10095000BB1BFD010DC0AA1FBB1FEE1FFF1FA2176F
:10096000B307E407F50720F0A21BB30BE40BF50B6C
:10097000661F771F881F991F1A9469F760957095F5
:10098000809590959B01AC01BD01CF010895EE0FBC
:10099000FF1F0590F491E02D0994F894FFCF010119
:1009A000000000004601A600D30093010401E2000C
:0209B000F6004F
:107E0000112484B714BE81FFF0D085E080938100F7
:107E100082E08093C00088E18093C10086E0809377
:107E2000C20080E18093C4008EE0C9D0259A86E02C
:107E300020E33CEF91E0309385002093840096BBD3
:107E4000B09BFECF1D9AA8958150A9F7CC24DD24C4
:107E500088248394B5E0AB2EA1E19A2EF3E0BF2EE7
:107E6000A2D0813461F49FD0082FAFD0023811F036
:107E7000013811F484E001C083E08DD089C08234E0
:107E800011F484E103C0853419F485E0A6D080C0E4
:107E9000853579F488D0E82EFF2485D0082F10E0AE
:107EA000102F00270E291F29000F111F8ED06801E7
:107EB0006FC0863521F484E090D080E0DECF843638
:107EC00009F040C070D06FD0082F6DD080E0C81688
:107ED00080E7D80618F4F601B7BEE895C0E0D1E017
:107EE00062D089930C17E1F7F0E0CF16F0E7DF06D8
:107EF00018F0F601B7BEE89568D007B600FCFDCFD4
:107F0000A601A0E0B1E02C9130E011968C91119780
:107F100090E0982F8827822B932B1296FA010C0160
:107F200087BEE89511244E5F5F4FF1E0A038BF0790
:107F300051F7F601A7BEE89507B600FCFDCF97BE46
:107F4000E89526C08437B1F42ED02DD0F82E2BD052
:107F50003CD0F601EF2C8F010F5F1F4F84911BD097
:107F6000EA94F801C1F70894C11CD11CFA94CF0C13
:107F7000D11C0EC0853739F428D08EE10CD085E9AC
:107F80000AD08FE07ACF813511F488E018D01DD067
:107F900080E101D065CF982F8091C00085FFFCCF94
:107FA0009093C60008958091C00087FFFCCF809118
:107FB000C00084FD01C0A8958091C6000895E0E648
:107FC000F0E098E1908380830895EDDF803219F02E
:107FD00088E0F5DFFFCF84E1DECF1F93182FE3DFCA
:107FE0001150E9F7F2DF1F91089580E0E8DFEE27F6
:047FF000FF270994CA
:027FFE00040479
:00000001FF
