:020000040000FA
:100000000C945D000C9485000C9485000C94850084
:100010000C9485000C9485000C9485000C9485004C
:100020000C9485000C9485000C9485000C9485003C
:100030000C9485000C9485000C9485000C9485002C
:100040000C948E020C9485000C945C020C94360285
:100050000C9485000C9485000C9485000C9485000C
:100060000C9485000C94850000000008000201003B
:100070000003040700000000000000000000000072
:10008000250028002B0000000000240027002A0083
:10009000040404040404040402020202020203032E
:1000A0000303030301020408102040800102040836
:1000B00010200102040810205C0511241FBECFEFA0
:1000C000D8E0DEBFCDBF21E0A4E1B1E001C01D92C8
:1000D000AE3CB207E1F711E0A0E0B1E0EAE1FFE0F9
:1000E00002C005900D92A431B107D9F710E0CDE51B
:1000F000D0E004C02197FE010E948507CC35D107CE
:10010000C9F70E94D8020C948B070C94000090E071
:10011000FC01EC55FF4F249180579F4FFC018491C7
:10012000882399F090E0880F991FFC01EA57FF4F50
:10013000A591B491FC01E458FF4F859194918FB73C
:10014000F894EC91E22BEC938FBF0895AF92BF929D
:10015000CF92DF92EF92FF920F931F93CF93DF9393
:100160006C017B018B01040F151FEB015E01AE18C2
:10017000BF08C017D10759F06991D601ED91FC91E4
:100180000190F081E02DC6010995892B79F7C50111
:10019000DF91CF911F910F91FF90EF90DF90CF9063
:1001A000BF90AF900895FC01538D448D252F30E012
:1001B000842F90E0821B930B541710F0CF96089574
:1001C00001970895FC01918D828D981761F0A28DA1
:1001D000AE0FBF2FB11D5D968C91928D9F5F9F7367
:1001E000928F90E008958FEF9FEF0895FC01918D1D
:1001F000828D981731F0828DE80FF11D858D90E08A
:1002000008958FEF9FEF0895FC01918D228D892F26
:1002100090E0805C9F4F821B91098F73992708950E
:1002200081E391E00E94040121E0892B09F420E0A0
:10023000822F089580E090E0892B29F00E94100120
:1002400081110C9400000895FC01A48DA80FB92F12
:10025000B11DA35ABF4F2C91848D90E001968F73EE
:100260009927848FA689B7892C93A089B1898C910D
:10027000837080648C93938D848D981306C002885C
:10028000F389E02D80818F7D80830895EF92FF9226
:100290000F931F93CF93DF93EC0181E0888F9B8DA9
:1002A0008C8D98131AC0E889F989808185FF15C063
:1002B0009FB7F894EE89FF896083E889F989808186
:1002C0008370806480839FBF81E090E0DF91CF9155
:1002D0001F910F91FF90EF900895F62E0B8D10E077
:1002E0000F5F1F4F0F731127E02E8C8D8E110CC0E6
:1002F0000FB607FCFACFE889F989808185FFF5CF31
:10030000CE010E942401F1CFEB8DEC0FFD2FF11DEA
:10031000E35AFF4FF0829FB7F8940B8FEA89FB896D
:1003200080818062CFCFCF93DF93EC01888D8823CB
:10033000B9F0AA89BB89E889F9898C9185FD03C048
:10034000808186FD0DC00FB607FCF7CF8C9185FF2D
:10035000F2CF808185FFEDCFCE010E942401E9CF4D
:10036000DF91CF91089590E0FC01E859FF4F24916F
:10037000FC01EC55FF4F3491FC01E057FF4FE49135
:10038000EE23C9F0222339F0233001F1A8F4213003
:1003900019F1223029F1F0E0EE0FFF1FE458FF4F72
:1003A000A591B4918FB7F894EC91611126C0309566
:1003B0003E233C938FBF08952730A9F02830C9F021
:1003C000243049F7809180008F7D03C080918000A8
:1003D0008F7780938000DFCF84B58F7784BDDBCFAC
:1003E00084B58F7DFBCF8091B0008F778093B00074
:1003F000D2CF8091B0008F7DF9CF3E2BDACF8E50D7
:10040000806480937C0080917A00806480937A007D
:1004100080917A0086FDFCCF8091780090917900E0
:1004200008953FB7F8948091150190911601A0911D
:100430001701B091180126B5A89B05C02F3F19F0F0
:100440000196A11DB11D3FBFBA2FA92F982F882754
:10045000BC01CD01620F711D811D911D42E0660F2F
:10046000771F881F991F4A95D1F708951F920F9201
:100470000FB60F9211242F933F934F935F936F9377
:100480007F938F939F93AF93BF93EF93FF9381E3FA
:1004900091E00E942401FF91EF91BF91AF919F9154
:1004A0008F917F916F915F914F913F912F910F901D
:1004B0000FBE0F901F9018951F920F920FB60F92BC
:1004C00011242F938F939F93EF93FF93E09141011A
:1004D000F09142018081E0914701F091480182FD55
:1004E0001BC0908180914A018F5F8F7320914B01D7
:1004F000821741F0E0914A01F0E0EF5CFE4F958FEA
:1005000080934A01FF91EF919F918F912F910F90CE
:100510000FBE0F901F9018958081F4CF1F920F92FD
:100520000FB60F9211242F933F938F939F93AF9306
:10053000BF938091190190911A01A0911B01B09174
:100540001C013091140123E0230F2D3758F501963B
:10055000A11DB11D209314018093190190931A01DC
:10056000A0931B01B0931C0180911501909116017D
:10057000A0911701B09118010196A11DB11D8093A2
:10058000150190931601A0931701B0931801BF9124
:10059000AF919F918F913F912F910F900FBE0F9030
:1005A0001F90189526E8230F0296A11DB11DD2CFEA
:1005B000CF93DF9300D000D01F92CDB7DEB77894F1
:1005C00084B5826084BD84B5816084BD85B5826058
:1005D00085BD85B5816085BD80916E008160809309
:1005E0006E00109281008091810082608093810072
:1005F0008091810081608093810080918000816082
:10060000809380008091B10084608093B1008091DC
:10061000B00081608093B00080917A008460809304
:100620007A0080917A00826080937A0080917A00CB
:10063000816080937A0080917A00806880937A004C
:100640001092C100E0914101F091420182E080836B
:10065000E0913D01F0913E011082E0913F01F09167
:1006600040018FEC808310924901E0914501F091A7
:10067000460186E08083E0914301F091440180814E
:1006800080618083E0914301F09144018081886022
:100690008083E0914301F0914401808180688083F0
:1006A000E0914301F091440180818F7D80838DE052
:1006B0000E9487008CE00E94870087E00E948700EC
:1006C00086E00E94870085E00E94870084E00E9407
:1006D000870083E00E94870082E00E948700CE01AD
:1006E00004969D838C8398E9492E9AE3592E612CB8
:1006F000712C8FB7F894C0901901D0901A01E09036
:100700001B01F0901C018FBF81E391E00E94040166
:10071000181619060CF05CC08E010F5F1F4F2FB723
:10072000F8948091190190911A01A0911B01B09148
:100730001C012FBF8093390190933A01A0933B0194
:10074000B0933C0181E391E00E94E20097FFAAC1CF
:100750002FB7F8948091190190911A01A0911B0173
:10076000B0911C012FBF4091390150913A01609125
:100770003B0170913C01841B950BA60BB70B40917C
:10078000350150913601609137017091380184171D
:100790009507A607B707B0F2498150E02A8130E0FB
:1007A0008B8190E04130510509F04DC12130310578
:1007B00009F034C19093300180932F01019709F023
:1007C00028C187E00E94870061E087E00E94B301B2
:1007D000C701B601A30192010E946307672B682B32
:1007E000692B09F009C180912F0190913001892B6B
:1007F000C9F01091010160E086E0112309F43AC1CB
:100800000E94B30160E085E00E94B30160E086E0F1
:100810000E94B30161E085E00E94B30181E01827E6
:100820001093010180912D0190912E01892BC9F027
:100830001091000160E083E0112309F427C10E94B8
:10084000B30160E082E00E94B30160E083E00E94B7
:10085000B30161E082E00E94B30181E018271093A8
:1008600000018EE00E94FF018C018FE00E94FF01D9
:100870001C0180E10E94FF01BC01990F880B990BBC
:100880000E948B0520E038ED4FE955E40E94F10607
:100890004B015C0181E10E94FF01BC01990F880BB3
:1008A000990B0E948B0520E038ED4FE955E40E943A
:1008B000F1066B017C01B801110F880B990B0E94A6
:1008C0008B0520E030EC4FE754E40E94F10620E075
:1008D00030E44CE955E40E94C60520E030E040E2F7
:1008E00051E40E94F10660931D0170931E018093F4
:1008F0001F0190932001A501940160E070E080EA5F
:1009000090E40E948406A50194010E94F10620E073
:1009100030E040E251E40E94C605609321017093EB
:1009200022018093230190932401B101330C880BA1
:10093000990B0E948B0520E030EC4FE754E40E94B5
:10094000F10620E030E44CE955E40E94C60520E0C1
:1009500030E040E251E40E94F1066093250170937B
:1009600026018093270190932801A701960160E05A
:1009700070E080EA90E40E948406A70196010E943C
:10098000F10620E030E040E251E40E94C6056093A9
:10099000290170932A0180932B0190932C0140E14F
:1009A00050E06DE171E081E391E00E94A6000E94B9
:1009B00011026B017C0188EE882E83E0982EA12C19
:1009C000B12C0E9411026C197D098E099F09683EA5
:1009D000734081059105A8F391E0891A9108A10857
:1009E000B108E8EECE0EE3E0DE1EE11CF11C81143E
:1009F0009104A104B10429F780E090E0892B09F467
:100A000078CE0E941001882309F473CE0E94000062
:100A100070CE87E00E94870060E0D7CE223031059B
:100A200009F0D6CE90932E0180932D01019731F4D9
:100A300084E00E94870061E084E0C8CE84E00E94E8
:100A4000870060E0F9CF4230510509F0C1CE213076
:100A5000310531F461E0019709F060E08DE0B6CE38
:100A60002230310509F0B4CE61E0019709F060E071
:100A70008CE0ACCE0E94B30160E085E00E94B3013F
:100A800061E086E00E94B30160E0C5CE0E94B30140
:100A900060E082E00E94B30161E083E00E94B30164
:100AA00060E0D8CEF80181938F018C819D81E81799
:100AB000F90709F034CE70CEE1E3F1E0138212823F
:100AC00088EE93E0A0E0B0E084839583A683B783AB
:100AD00086E091E09183808385EC90E09587848720
:100AE00084EC90E09787868780EC90E0918B808BF8
:100AF00081EC90E0938B828B82EC90E0958B848BE1
:100B000086EC90E0978B868B118E128E138E148E4E
:100B10000895E89409C097FB3EF4909580957095F0
:100B200061957F4F8F4F9F4F9923A9F0F92F96E939
:100B3000BB279395F695879577956795B795F111AE
:100B4000F8CFFAF4BB0F11F460FF1BC06F5F7F4F4B
:100B50008F4F9F4F16C0882311F096E911C077235D
:100B600021F09EE8872F762F05C0662371F096E866
:100B7000862F70E060E02AF09A95660F771F881F35
:100B8000DAF7880F9695879597F908950E94D90509
:100B90000C944A060E943C0638F00E94430620F05E
:100BA000952311F00C9433060C94390611240C94FF
:100BB0007E060E945B0670F3959FC1F3950F50E08F
:100BC000551F629FF001729FBB27F00DB11D639FFF
:100BD000AA27F00DB11DAA1F649F6627B00DA11DA5
:100BE000661F829F2227B00DA11D621F739FB00D4B
:100BF000A11D621F839FA00D611D221F749F3327BB
:100C0000A00D611D231F849F600D211D822F762F53
:100C10006A2F11249F5750409AF0F1F088234AF030
:100C2000EE0FFF1FBB1F661F771F881F915050409C
:100C3000A9F79E3F510580F00C9433060C947E0674
:100C40005F3FE4F3983ED4F3869577956795B79523
:100C5000F795E7959F5FC1F7FE2B880F911D96953D
:100C6000879597F9089597F99F6780E870E060E0AD
:100C700008959FEF80EC089500240A941616170635
:100C800018060906089500240A941216130614067D
:100C900005060895092E0394000C11F4882352F0E0
:100CA000BB0F40F4BF2B11F460FF04C06F5F7F4F98
:100CB0008F4F9F4F089557FD9058440F551F59F07F
:100CC0005F3F71F04795880F97FB991F61F09F3F39
:100CD00079F087950895121613061406551FF2CF62
:100CE0004695F1DF08C0161617061806991FF1CFB2
:100CF00086957105610508940895E894BB276627D9
:100D00007727CB0197F908955058BB27AA270E944F
:100D10009C060C944A060E943C0638F00E9443064A
:100D200020F039F49F3F19F426F40C9439060EF4A0
:100D3000E095E7FB0C943306E92F0E945B0658F31D
:100D4000BA17620773078407950720F079F4A6F5B0
:100D50000C947D060EF4E0950B2EBA2FA02D0B01FE
:100D6000B90190010C01CA01A0011124FF27591BF0
:100D700099F0593F50F4503E68F11A16F040A22FF6
:100D8000232F342F4427585FF3CF46953795279567
:100D9000A795F0405395C9F77EF41F16BA0B620B66
:100DA000730B840BBAF09150A1F0FF0FBB1F661FAD
:100DB000771F881FC2F70EC0BA0F621F731F841FF0
:100DC00048F4879577956795B795F7959E3F08F016
:100DD000B0CF9395880F08F09927EE0F97958795D8
:100DE00008950E9405070C944A060E94430658F095
:100DF0000E943C0640F029F45F3F29F00C94330632
:100E000051110C947E060C9439060E945B0668F31F
:100E10009923B1F3552391F3951B550BBB27AA27B3
:100E200062177307840738F09F5F5F4F220F331FED
:100E3000441FAA1FA9F335D00E2E3AF0E0E832D0B5
:100E400091505040E695001CCAF72BD0FE2F29D0B8
:100E5000660F771F881FBB1F261737074807AB078A
:100E6000B0E809F0BB0B802DBF01FF2793585F4FFF
:100E70003AF09E3F510578F00C9433060C947E06B0
:100E80005F3FE4F3983ED4F3869577956795B795E1
:100E9000F7959F5FC9F7880F911D9695879597F9EC
:100EA0000895E1E0660F771F881FBB1F6217730765
:100EB0008407BA0720F0621B730B840BBA0BEE1F7A
:100EC00088F7E0950895A1E21A2EAA1BBB1BFD012D
:100ED0000DC0AA1FBB1FEE1FFF1FA217B307E40719
:100EE000F50720F0A21BB30BE40BF50B661F771F71
:100EF000881F991F1A9469F7609570958095909551
:100F00009B01AC01BD01CF010895EE0FFF1F0590BD
:100F1000F491E02D0994F894FFCF01010000000046
:0E0F20004601A600D30093010401E200F60092
:107E0000112484B714BE81FFF0D085E080938100F7
:107E100082E08093C00088E18093C10086E0809377
:107E2000C20080E18093C4008EE0C9D0259A86E02C
:107E300020E33CEF91E0309385002093840096BBD3
:107E4000B09BFECF1D9AA8958150A9F7CC24DD24C4
:107E500088248394B5E0AB2EA1E19A2EF3E0BF2EE7
:107E6000A2D0813461F49FD0082FAFD0023811F036
:107E7000013811F484E001C083E08DD089C08234E0
:107E800011F484E103C0853419F485E0A6D080C0E4
:107E9000853579F488D0E82EFF2485D0082F10E0AE
:107EA000102F00270E291F29000F111F8ED06801E7
:107EB0006FC0863521F484E090D080E0DECF843638
:107EC00009F040C070D06FD0082F6DD080E0C81688
:107ED00080E7D80618F4F601B7BEE895C0E0D1E017
:107EE00062D089930C17E1F7F0E0CF16F0E7DF06D8
:107EF00018F0F601B7BEE89568D007B600FCFDCFD4
:107F0000A601A0E0B1E02C9130E011968C91119780
:107F100090E0982F8827822B932B1296FA010C0160
:107F200087BEE89511244E5F5F4FF1E0A038BF0790
:107F300051F7F601A7BEE89507B600FCFDCF97BE46
:107F4000E89526C08437B1F42ED02DD0F82E2BD052
:107F50003CD0F601EF2C8F010F5F1F4F84911BD097
:107F6000EA94F801C1F70894C11CD11CFA94CF0C13
:107F7000D11C0EC0853739F428D08EE10CD085E9AC
:107F80000AD08FE07ACF813511F488E018D01DD067
:107F900080E101D065CF982F8091C00085FFFCCF94
:107FA0009093C60008958091C00087FFFCCF809118
:107FB000C00084FD01C0A8958091C6000895E0E648
:107FC000F0E098E1908380830895EDDF803219F02E
:107FD00088E0F5DFFFCF84E1DECF1F93182FE3DFCA
:107FE0001150E9F7F2DF1F91089580E0E8DFEE27F6
:047FF000FF270994CA
:027FFE00040479
:00000001FF
