:100000000C949E000C94C6000C94C6000C94C60080
:100010000C94C6000C94C6000C94C6000C94C60048
:100020000C94C6000C94C6000C94C6000C94C60038
:100030000C94C6000C94C6000C94C6000C94C60028
:100040000C94ED030C94C6000C94BB030C94950324
:100050000C94C6000C94C6000C94C6000C94C60008
:100060000C94C6000C94C60007634236B79BD8A711
:100070001A39685618AEBAAB558C1D3CB7CC5763CD
:10008000BD6DEDFD753EF6177231BF000000803F7B
:1000900008000000BE922449123EABAAAA2ABECD97
:1000A000CCCC4C3E00000080BEABAAAAAA3E000009
:1000B0000000BF000000803F000000000008417801
:1000C000D3BB4387D1133D190E3CC3BD4282AD2B38
:1000D0003E68EC8276BED98FE1A93E4C80EFFFBE30
:1000E00001C4FF7F3F000000000000000008000284
:1000F00001000003040700000000000000000000F1
:100100000000250028002B0000000000240027002C
:100110002A00040404040404040402020202020289
:1001200003030303030301020408102040800102BB
:1001300004081020010204081020490611241FBEE3
:10014000CFEFD8E0DEBFCDBF21E0A4E1B1E001C038
:100150001D92A63DB207E1F711E0A0E0B1E0EEEF9D
:10016000F3E102C005900D92A431B107D9F710E078
:10017000CEE9D0E004C02197FE010E94F709CD39F5
:10018000D107C9F70E9437040C94FD090C940000B4
:1001900090E0FC01EA5DFE4F24918E5E9E4FFC01D3
:1001A0008491882399F090E0880F991FFC01E85F03
:1001B000FE4FA591B491FC01E250FF4F85919491BF
:1001C0008FB7F894EC91E22BEC938FBF0895AF9228
:1001D000BF92CF92DF92EF92FF920F931F93CF9334
:1001E000DF936C017B018B01040F151FEB015E0196
:1001F000AE18BF08C017D10759F06991D601ED912B
:10020000FC910190F081E02DC6010995892B79F7C9
:10021000C501DF91CF911F910F91FF90EF90DF907B
:10022000CF90BF90AF900895FC01538D448D252F42
:1002300030E0842F90E0821B930B541710F0CF9680
:10024000089501970895FC01918D828D981761F0B2
:10025000A28DAE0FBF2FB11D5D968C91928D9F5FC9
:100260009F73928F90E008958FEF9FEF0895FC01A8
:10027000918D828D981731F0828DE80FF11D858D5B
:1002800090E008958FEF9FEF0895FC01918D228DEE
:10029000892F90E0805C9F4F821B91098F73992773
:1002A000089589E391E00E94450121E0892B09F43A
:1002B00020E0822F089580E090E0892B29F00E94B1
:1002C000510181110C9400000895FC01A48DA80F28
:1002D000B92FB11DA35ABF4F2C91848D90E0019688
:1002E0008F739927848FA689B7892C93A089B189A8
:1002F0008C91837080648C93938D848D981306C049
:100300000288F389E02D80818F7D80830895EF92AC
:10031000FF920F931F93CF93DF93EC0181E0888FBF
:100320009B8D8C8D98131AC0E889F989808185FF8F
:1003300015C09FB7F894EE89FF896083E889F98931
:1003400080818370806480839FBF81E090E0DF9133
:10035000CF911F910F91FF90EF900895F62E0B8D86
:1003600010E00F5F1F4F0F731127E02E8C8D8E1141
:100370000CC00FB607FCFACFE889F989808185FFA8
:10038000F5CFCE010E946501F1CFEB8DEC0FFD2F73
:10039000F11DE35AFF4FF0829FB7F8940B8FEA8963
:1003A000FB8980818062CFCFCF93DF93EC01888D72
:1003B0008823B9F0AA89BB89E889F9898C9185FDE0
:1003C00003C0808186FD0DC00FB607FCF7CF8C916E
:1003D00085FFF2CF808185FFEDCFCE010E946501C0
:1003E000E9CFDF91CF91089590E0FC01E651FF4FF6
:1003F0002491FC01EA5DFE4F3491FC01EE5EFE4F5C
:10040000E491EE23C9F0222339F0233001F1A8F45E
:10041000213019F1223029F1F0E0EE0FFF1FE250F8
:10042000FF4FA591B4918FB7F894EC91611126C05C
:1004300030953E233C938FBF08952730A9F0283094
:10044000C9F0243049F7809180008F7D03C08091EE
:1004500080008F7780938000DFCF84B58F7784BD55
:10046000DBCF84B58F7DFBCF8091B0008F778093F9
:10047000B000D2CF8091B0008F7DF9CF3E2BDACF84
:100480008E50806480937C0080917A008064809399
:100490007A0080917A0086FDFCCF8091780090915F
:1004A000790008953FB7F8948091290190912A012D
:1004B000A0912B01B0912C0126B5A89B05C02F3F20
:1004C00019F00196A11DB11D3FBFBA2FA92F982F7A
:1004D0008827BC01CD01620F711D811D911D42E075
:1004E000660F771F881F991F4A95D1F70895CF93FC
:1004F000C62F61E00E94F40160E08C2FCF910C9434
:10050000F401CF93C62F60E00E94F40161E08C2FCC
:10051000CF910C94F401CF93C62F60E00E94F401B8
:1005200060E08C2FCF910C94F401CF93C62F60E044
:100530000E94F40160E08C2FCF910C94F401CF92D3
:10054000DF92EF92FF92BC01990F880B990B0E94EA
:10055000780620E038ED4FE955E40E94DE076B0194
:100560007C01AC019B0160E070E080EA90E40E94B5
:100570007107A70196010E94DE0720E030E040EA03
:1005800050E40E94B3062CE53FE84AE150EC0E949B
:10059000500829ED3FEF4AED5BE40E94B306FF905F
:1005A000EF90DF90CF9008958F929F92AF92BF927D
:1005B000CF92DF92EF92FF920F931F93CF93DF932F
:1005C0008EE00E9440026C018FE00E9440027C019C
:1005D00080E10E9440020E949F028B01D82FC92F08
:1005E00081E10E9440020E949F024B015C01B60122
:1005F000DD0C880B990B0E94780620E030EC4FE769
:1006000054E40E94DE0720E030E44CE955E40E9407
:10061000B30620E030E040E251E40E94DE07609340
:1006200014017093150180931601909317010093A4
:10063000180110931901D0931A01C0931B01B7013F
:10064000FF0C880B990B0E94780620E030EC4FE7F6
:1006500054E40E94DE0720E030E44CE955E40E94B7
:10066000B30620E030E040E251E40E94DE076093F0
:100670001C0170931D0180931E0190931F018092B5
:10068000200190922101A0922201B0922301809139
:10069000370180932401809133018093250180915B
:1006A000350180932601809131018093270144E137
:1006B00050E064E171E089E391E00E94E70089E3A2
:1006C00091E00E94D4010E9452024B015C0188EE2D
:1006D000C82E83E0D82EE12CF12C0E94520268191A
:1006E00079098A099B09683E734081059105A8F341
:1006F00021E0C21AD108E108F10888EE880E83E0F3
:10070000981EA11CB11CC114D104E104F10429F705
:10071000DF91CF911F910F91FF90EF90DF90CF90DD
:10072000BF90AF909F908F9008951F920F920FB639
:100730000F9211242F933F934F935F936F937F9367
:100740008F939F93AF93BF93EF93FF9389E391E0D0
:100750000E946501FF91EF91BF91AF919F918F91A1
:100760007F916F915F914F913F912F910F900FBEAD
:100770000F901F9018951F920F920FB60F92112491
:100780002F938F939F93EF93FF93E0914901F09103
:100790004A018081E0914F01F091500182FD1BC020
:1007A0009081809152018F5F8F7320915301821746
:1007B00041F0E0915201F0E0E75CFE4F958F8093AD
:1007C0005201FF91EF919F918F912F910F900FBE4A
:1007D0000F901F9018958081F4CF1F920F920FB643
:1007E0000F9211242F933F938F939F93AF93BF93B7
:1007F00080912D0190912E01A0912F01B091300197
:100800003091280123E0230F2D3758F50196A11DC3
:10081000B11D2093280180932D0190932E01A09368
:100820002F01B09330018091290190912A01A0916C
:100830002B01B0912C010196A11DB11D80932901BE
:1008400090932A01A0932B01B0932C01BF91AF91FB
:100850009F918F913F912F910F900FBE0F901F90FE
:10086000189526E8230F0296A11DB11DD2CFCF9374
:10087000DF9300D01F92CDB7DEB7789484B5826045
:1008800084BD84B5816084BD85B5826085BD85B534
:10089000816085BD80916E00816080936E001092B2
:1008A000810080918100826080938100809181002D
:1008B00081608093810080918000816080938000BE
:1008C0008091B10084608093B1008091B00081601C
:1008D0008093B00080917A00846080937A00809148
:1008E0007A00826080937A0080917A0081608093A0
:1008F0007A0080917A00806880937A001092C1001B
:10090000E0914901F0914A0182E08083E091450144
:10091000F09146011082E0914701F09148018FEC7F
:10092000808310925101E0914D01F0914E0186E0DB
:100930008083E0914B01F0914C0180818061808344
:10094000E0914B01F0914C01808188608083E091BF
:100950004B01F0914C01808180688083E0914B01D4
:10096000F0914C0180818F7D80838DE00E94C800D2
:100970008CE00E94C80087E00E94C80086E00E94C8
:10098000C80085E00E94C80082E00E94C80083E0A1
:100990000E94C80084E00E94C8004E0184E0880ED6
:1009A000911C80E6482E8AEE582E612C712C90E026
:1009B000A92E90E0B92E8FB7F894C0902D01D09059
:1009C0002E01E0902F01F09030018FBF89E391E07C
:1009D0000E944501181619060CF06DC08E010F5FBC
:1009E0001F4F2FB7F89480912D0190912E01A09167
:1009F0002F01B09130012FBF8093410190934201AC
:100A0000A0934301B093440189E391E00E94230144
:100A100097FF37C12FB7F89480912D0190912E0147
:100A2000A0912F01B09130012FBF40914101509111
:100A300042016091430170914401841B950BA60B08
:100A4000B70B40913D0150913E0160913F01709183
:100A5000400184179507A607B707B0F2498150E017
:100A60002A8130E08B8190E04130510509F0CDC002
:100A70002130310509F08EC0909338018093370101
:100A8000019709F073C087E00E94C80061E087E029
:100A90000E94F4018091010165E070E0882309F46F
:100AA0005AC086E090E00E94950265E070E086E022
:100AB00090E00E948102C701B601A30192010E9449
:100AC000D509672B682B692BD1F5F89480913701F4
:100AD00090913801892BA9F08091010191E065E0A6
:100AE00070E0892780930101882309F4B4C086E06F
:100AF00090E00E94950265E070E086E090E00E9440
:100B000081028091350190913601892BA9F0809165
:100B1000000191E064E070E0892780930001882360
:100B200009F4A4C083E090E00E94950264E070E0C4
:100B300083E090E00E9481020E94D4027894A11484
:100B4000B10409F438CF0E945101882309F433CF4E
:100B50000E94000030CF86E090E00E948B0265E0AA
:100B600070E086E090E00E947702A5CF87E00E94C7
:100B7000C80060E087E00E94F40165E070E086E074
:100B800090E00E94950265E070E086E090E00E94AF
:100B90008B0291CF2230310509F08DCF9093360131
:100BA000809335010197F9F482E00E94C80061E06A
:100BB00082E00E94F4018091000164E070E08823EB
:100BC00049F083E090E00E94950264E070E083E0E9
:100BD00090E06FCF83E090E00E948B0264E070E0D1
:100BE00083E090E0C0CF82E00E94C80060E082E035
:100BF0000E94F40164E070E083E090E00E949502BE
:100C000064E070E083E090E0C2CF42305105E9F447
:100C10002130310561F4909334018093330161E018
:100C2000019709F060E08DE00E94F40144CF22308A
:100C3000310509F040CF909332018093310161E09A
:100C4000019709F060E08CE0EFCF452B09F033CF3E
:100C50000E94D40230CF86E090E00E948B0265E0D3
:100C600070E086E090E00E9477024BCF83E090E056
:100C70000E948B0264E070E083E090E00E947702C3
:100C80005BCFF80181938F01E815F90509F0A9CE32
:100C9000E5CEE9E3F1E01382128288EE93E0A0E072
:100CA000B0E084839583A683B78386E091E0918347
:100CB000808385EC90E09587848784EC90E097872B
:100CC000868780EC90E0918B808B81EC90E0938B19
:100CD000828B82EC90E0958B848B86EC90E0978BF6
:100CE000868B118E128E138E148E0895E89409C08F
:100CF00097FB3EF490958095709561957F4F8F4F4F
:100D00009F4F9923A9F0F92F96E9BB279395F69564
:100D1000879577956795B795F111F8CFFAF4BB0FE2
:100D200011F460FF1BC06F5F7F4F8F4F9F4F16C046
:100D3000882311F096E911C0772321F09EE8872FD0
:100D4000762F05C0662371F096E8862F70E060E08C
:100D50002AF09A95660F771F881FDAF7880F969505
:100D6000879597F908950E94C6060C9437070E944C
:100D7000290738F00E94300720F0952311F00C94D9
:100D800020070C94260711240C946B070E94480737
:100D900070F3959FC1F3950F50E0551F629FF001CE
:100DA000729FBB27F00DB11D639FAA27F00DB11DE7
:100DB000AA1F649F6627B00DA11D661F829F222770
:100DC000B00DA11D621F739FB00DA11D621F839FF7
:100DD000A00D611D221F749F3327A00D611D231FCD
:100DE000849F600D211D822F762F6A2F11249F571B
:100DF00050409AF0F1F088234AF0EE0FFF1FBB1F1E
:100E0000661F771F881F91505040A9F79E3F5105DC
:100E100080F00C9420070C946B075F3FE4F3983E3E
:100E2000D4F3869577956795B795F795E7959F5F86
:100E3000C1F7FE2B880F911D9695879597F9089518
:100E400097F99F6780E870E060E008959FEF80EC7D
:100E5000089500240A941616170618060906089520
:100E600000240A9412161306140605060895092E86
:100E70000394000C11F4882352F0BB0F40F4BF2BF5
:100E800011F460FF04C06F5F7F4F8F4F9F4F089535
:100E900057FD9058440F551F59F05F3F71F047952B
:100EA000880F97FB991F61F09F3F79F08795089510
:100EB000121613061406551FF2CF4695F1DF08C02F
:100EC000161617061806991FF1CF8695710561054C
:100ED00008940895E894BB2766277727CB0197F9F4
:100EE00008955058BB27AA270E9489070C943707FA
:100EF0000E94290738F00E94300720F039F49F3F04
:100F000019F426F40C9426070EF4E095E7FB0C94F4
:100F10002007E92F0E94480758F3BA1762077307A2
:100F20008407950720F079F4A6F50C946A070EF46F
:100F3000E0950B2EBA2FA02D0B01B90190010C01E9
:100F4000CA01A0011124FF27591B99F0593F50F401
:100F5000503E68F11A16F040A22F232F342F442759
:100F6000585FF3CF469537952795A795F040539551
:100F7000C9F77EF41F16BA0B620B730B840BBAF021
:100F80009150A1F0FF0FBB1F661F771F881FC2F78C
:100F90000EC0BA0F621F731F841F48F487957795A0
:100FA0006795B795F7959E3F08F0B0CF9395880F5A
:100FB00008F09927EE0F9795879508950E94F207FC
:100FC0000C9437070E94300758F00E94290740F020
:100FD00029F45F3F29F00C94200751110C946B0702
:100FE0000C9426070E94480768F39923B1F3552310
:100FF00091F3951B550BBB27AA276217730784072C
:1010000038F09F5F5F4F220F331F441FAA1FA9F3C1
:1010100035D00E2E3AF0E0E832D091505040E695AF
:10102000001CCAF72BD0FE2F29D0660F771F881F10
:10103000BB1F261737074807AB07B0E809F0BB0B03
:10104000802DBF01FF2793585F4F3AF09E3F510517
:1010500078F00C9420070C946B075F3FE4F3983E04
:10106000D4F3869577956795B795F7959F5FC9F700
:10107000880F911D9695879597F90895E1E0660F81
:10108000771F881FBB1F621773078407BA0720F0FA
:10109000621B730B840BBA0BEE1F88F7E095089563
:1010A000FA01EE0FFF1F309621053105A1F1611500
:1010B000710561F48038BFE39B0749F1689490386B
:1010C000810561F08038BFEF9B0741F099234AF515
:1010D000FF3FE1053105210519F1E8940894E795F2
:1010E000D901AA2329F4AB2FBE2FF85FD0F310C08B
:1010F000FF5F70F4A695E0F7F73950F019F0FF3A6A
:1011000038F49F779F930DD00F9007FC9058089567
:1011100046F00C94260760E070E080E89FE30895B5
:101120004FE79F775F934F933F932F930E944B0915
:101130002F913F914F915F910E94B3060C94A808A4
:1011400029F416F00C9420070C946A070C942607D7
:101150000E945007A8F39638A0F707F80F92E8947A
:101160002BE33AEA48EB5FE70E94C9060F920F9221
:101170000F924DB75EB70F920E949309E8E6F0E038
:101180000E94DA084F915F91EF91FF91E595EE1F74
:10119000FF1F49F0FE57E0684427EE0F441FFA9501
:1011A000E1F74195550B0E940D090F9007FE0C9435
:1011B00001090895DF93CF931F930F93FF92EF924E
:1011C000DF927B018C01689406C0DA2EEF010E9449
:1011D000C606FE01E894A59125913591459155915A
:1011E000A6F3EF010E948907FE019701A801DA9496
:1011F00069F7DF90EF90FF900F911F91CF91DF91F2
:1012000008959B01AC0160E070E080E89FE30C94DE
:10121000DE070C9420070C94C7090E945007D8F3EE
:101220009923C9F3940F511DA3F39150504094F0AA
:1012300059F0882332F0660F771F881F9150504075
:10124000C1F79E3F51052CF7880F911D9695879504
:1012500097F908955F3FACF0983E9CF0BB278695C8
:1012600077956795B79508F4B1609395C1F7BB0F73
:1012700058F711F460FFE8CF6F5F7F4F8F4F9F4F9C
:10128000E3CF0C946B0716F00C94C7090C94260757
:1012900068940C9420070E945007A8F39923C1F387
:1012A000AEF3DF93CF931F930F93FF92C92FDD27E8
:1012B00088232AF02197660F771F881FDAF720E02E
:1012C00030E040E85FEB9FE3883920F0803E38F063
:1012D00021968F770E947207E0E9F0E004C00E9437
:1012E0007207EDEBF0E00E94DA088B01BE01EC0121
:1012F000FB2E6F5771097595771F880B990B0E940C
:10130000780628E132E741E35FE30E94C606AF2D8D
:101310009801AE01FF900F911F91CF91DF910E9434
:1013200089070C943707FA01DC01AA0FBB1F9B0148
:10133000AC01BF5728F4222733274427507820C018
:10134000B75190F4AB2F0024469537952795011C93
:10135000A395D2F3002071F0220F331F441FB395E1
:10136000DAF30ED00C94710761307105A0E88A079A
:10137000B94630F49B01AC0166277727882790781F
:10138000309621F0208331834283538308959F3F19
:1013900031F0915020F4879577956795B795880F30
:1013A000911D9695879597F90895A1E21A2EAA1B8B
:1013B000BB1BFD010DC0AA1FBB1FEE1FFF1FA21705
:1013C000B307E407F50720F0A21BB30BE40BF50B02
:1013D000661F771F881F991F1A9469F7609570958B
:1013E000809590959B01AC01BD01CF010895EE0F52
:0E13F000FF1F0590F491E02D0994F894FFCFB3
:1013FE000101000000008701E7001401D40145013E
:04140E00230137017E
:00000001FF
